:020000040800F2
:1000000000500020F10D0008350E0008350E0008E4
:10001000350E0008350E0008350E000800000000FF
:10002000000000000000000000000000350E000885
:10003000350E000800000000350E0008750C0008A1
:10004000350E0008350E0008350E0008350E000884
:10005000350E0008350E0008350E0008350E000874
:10006000350E0008350E0008350E0008350E000864
:10007000350E0008350E0008350E0008350E000854
:10008000350E0008350E0008350E0008350E000844
:10009000350E0008350E0008350E0008350E000834
:1000A000350E0008350E0008350E0008350E000824
:1000B000090D0008350E0008350E0008350E000841
:1000C000350E0008350E0008350E0008350E000804
:1000D000350E0008350E0008350E0008350E0008F4
:1000E000350E0008350E0008350E0008000000002F
:1000F0000000000000000000000000000000000000
:0C01000000000000000000005FF808F1A3
:1001100081F0004102E000BF83F0004330B54FEAB8
:1001200041044FEA430594EA050F08BF90EA020F25
:100130001FBF54EA000C55EA020C7FEA645C7FEAB8
:10014000655C00F0E2804FEA5454D4EB5555B8BFDB
:100150006D420CDD2C4480EA020281EA030382EA4C
:10016000000083EA010180EA020281EA0303362DDE
:1001700088BF30BD11F0004F4FEA01314FF4801CB1
:100180004CEA113102D0404261EB410113F0004FC3
:100190004FEA03334CEA133302D0524263EB43037A
:1001A00094EA050F00F0A780A4F10104D5F1200E18
:1001B0000DDB02FA0EFC22FA05F2801841F1000173
:1001C00003FA0EF2801843FA05F359410EE0A5F147
:1001D00020050EF1200E012A03FA0EFC28BF4CF078
:1001E000020C43FA05F3C01851EBE37101F000452E
:1001F00007D54FF0000EDCF1000C7EEB00006EEB3B
:100200000101B1F5801F1BD3B1F5001F0CD34908C4
:100210005FEA30004FEA3C0C04F101044FEA44521B
:1002200012F5800F80F09A80BCF1004F08BF5FEAA2
:10023000500C50F1000041EB045141EA050130BD82
:100240005FEA4C0C404141EB010111F4801FA4F125
:100250000104E9D191F0000F04BF01460020B1FA7A
:1002600081F308BF2033A3F10B03B3F120020CDAB2
:100270000C3208DD02F1140CC2F10C0201FA0CF090
:1002800021FA02F10CE002F11402D8BFC2F1200CF5
:1002900001FA02F120FA0CFCDCBF41EA0C019040AB
:1002A000E41AA2BF01EB0451294330BD6FEA0404F4
:1002B0001F3C1CDA0C340EDC04F11404C4F12002DF
:1002C00020FA04F001FA02F340EA030021FA04F3F1
:1002D00045EA030130BDC4F10C04C4F1200220FA48
:1002E00002F001FA04F340EA0300294630BD21FA86
:1002F00004F0294630BD94F0000F83F4801306BF4C
:1003000081F480110134013D4EE77FEA645C18BF3F
:100310007FEA655C29D094EA050F08BF90EA020FD6
:1003200005D054EA000C04BF1946104630BD91EACE
:10033000030F1EBF0021002030BD5FEA545C05D1D1
:100340004000494128BF41F0004130BD14F5800410
:100350003CBF01F5801130BD01F0004545F0FE4184
:1003600041F470014FF0000030BD7FEA645C1ABFB9
:10037000194610467FEA655C1CBF0B46024650EAF0
:10038000013406BF52EA033591EA030F41F400211C
:1003900030BD00BF90F0000F04BF0021704730B5A2
:1003A0004FF4806404F132044FF000054FF0000177
:1003B00050E700BF90F0000F04BF0021704730B538
:1003C0004FF4806404F1320410F0004548BF40420D
:1003D0004FF000013EE700BF42004FEAE2014FEA62
:1003E00031014FEA02701FBF12F07F4393F07F4F3D
:1003F00081F06051704792F0000F14BF93F07F4F6F
:10040000704730B54FF4607401F0004521F00041B1
:1004100020E700BF50EA010208BF704730B54FF037
:1004200000050AE050EA010208BF704730B511F03C
:10043000004502D5404261EB41014FF4806404F174
:1004400032045FEA915C3FF4DCAE4FF003025FEAF6
:10045000DC0C18BF03325FEADC0C18BF033202EB7E
:10046000DC02C2F1200300FA03FC20FA02F001FAD8
:1004700003FE40EA0E0021FA02F11444C1E600BF77
:1004800070B54FF0FF0C4CF4E06C1CEA11541DBF2A
:100490001CEA135594EA0C0F95EA0C0F00F0DEF8F5
:1004A0002C4481EA030621EA4C5123EA4C5350EADA
:1004B000013518BF52EA033541F4801143F480132B
:1004C00038D0A0FB02CE4FF00005E1FB02E506F0BC
:1004D0000042E0FB03E54FF00006E1FB03569CF011
:1004E000000F18BF4EF0010EA4F1FF04B6F5007F17
:1004F00064F5407404D25FEA4E0E6D4146EB060689
:1005000042EAC62141EA55514FEAC52040EA5E5011
:100510004FEACE2EB4F1FD0C88BFBCF5E06F1ED8BB
:10052000BEF1004F08BF5FEA500E50F1000041EBF2
:10053000045170BD06F0004646EA010140EA02009F
:1005400081EA0301B4EB5C04C2BFD4EB0C0541EAC1
:10055000045170BD41F480114FF0000E013C00F3D6
:10056000AB8014F1360FDEBF002001F0004170BDFA
:10057000C4F10004203C35DA0C341BDC04F1140413
:10058000C4F1200500FA05F320FA04F001FA05F29F
:1005900040EA020001F0004221F0004110EBD3706C
:1005A00021FA04F642EB06015EEA430E08BF20EA98
:1005B000D37070BDC4F10C04C4F1200500FA04F33B
:1005C00020FA05F001FA04F240EA020001F00041CD
:1005D00010EBD37041F100015EEA430E08BF20EA40
:1005E000D37070BDC4F1200500FA05F24EEA020E88
:1005F00020FA04F301FA05F243EA020321FA04F0B7
:1006000001F0004121FA04F220EA020000EBD3706D
:100610005EEA430E08BF20EAD37070BD94F0000F6D
:100620000FD101F00046400041EB010111F4801FA1
:1006300008BF013CF7D041EA060195F0000F18BF52
:10064000704703F00046520043EB030313F4801F8E
:1006500008BF013DF7D043EA0603704794EA0C0F48
:100660000CEA135518BF95EA0C0F0CD050EA41065E
:1006700018BF52EA4306D1D181EA030101F00041DB
:100680004FF0000070BD50EA410606BF1046194603
:1006900052EA430619D094EA0C0F02D150EA01360F
:1006A00013D195EA0C0F05D152EA03361CBF104650
:1006B00019460AD181EA030101F0004141F0FE41EF
:1006C00041F470014FF0000070BD41F0FE4141F473
:1006D000780170BD70B54FF0FF0C4CF4E06C1CEA73
:1006E00011541DBF1CEA135594EA0C0F95EA0C0F28
:1006F00000F0A7F8A4EB050481EA030E52EA0335E3
:100700004FEA013100F088804FEA03334FF0805503
:1007100045EA131343EA12634FEA022245EA111530
:1007200045EA10654FEA00260EF000419D4208BFE1
:10073000964244F1FD0404F5407402D25B084FEA8E
:100740003202B61A65EB03055B084FEA32024FF43A
:1007500080104FF4002CB6EB020E75EB030E22BF97
:10076000B61A754640EA0C005B084FEA3202B6EB57
:10077000020E75EB030E22BFB61A754640EA5C0006
:100780005B084FEA3202B6EB020E75EB030E22BF96
:10079000B61A754640EA9C005B084FEA3202B6EB97
:1007A000020E75EB030E22BFB61A754640EADC0056
:1007B00055EA060E18D04FEA051545EA16754FEAB8
:1007C00006164FEAC30343EA52734FEAC2025FEAD6
:1007D0001C1CC0D111F4801F0BD141EA00014FF065
:1007E00000004FF0004CB6E711F4801F04BF014336
:1007F0000020B4F1FD0C88BFBCF5E06F3FF6AFAE52
:10080000B5EB030C04BFB6EB020C5FEA500C50F1E1
:10081000000041EB045170BD0EF0004E4EEA113164
:1008200014EB5C04C2BFD4EB0C0541EA045170BD6B
:1008300041F480114FF0000E013C90E645EA060EAF
:100840008DE60CEA135594EA0C0F08BF95EA0C0FDD
:100850003FF43BAF94EA0C0F0AD150EA01347FF425
:1008600034AF95EA0C0F7FF425AF104619462CE7FC
:1008700095EA0C0F06D152EA03353FF4FDAE10465F
:10088000194622E750EA410618BF52EA43067FF4B0
:10089000C5AE50EA41047FF40DAF52EA43057FF440
:1008A000EBAE12E74FF0FF3C06E000BF4FF0010C4B
:1008B00002E000BF4FF0010C4DF804CD4FEA410CAF
:1008C0007FEA6C5C4FEA430C18BF7FEA6C5C1BD07C
:1008D00001B050EA410C0CBF52EA430C91EA030FFD
:1008E00002BF90EA020F0020704710F1000F91EA5A
:1008F000030F58BF994208BF90422CBFD8176FEA28
:10090000E37040F0010070474FEA410C7FEA6C5CF5
:1009100002D150EA013C07D14FEA430C7FEA6C5CFC
:10092000D6D152EA033CD3D05DF8040B704700BF28
:100930008446104662468C461946634600E000BF76
:1009400001B5FFF7B7FF002848BF10F1000F01BD48
:100950004DF808EDFFF7F4FF0CBF012000205DF813
:1009600008FB00BF4DF808EDFFF7EAFF34BF012098
:1009700000205DF808FB00BF4DF808EDFFF7E0FF31
:1009800094BF012000205DF808FB00BF4DF808ED82
:10099000FFF7CEFF94BF012000205DF808FB00BFE9
:1009A0004DF808EDFFF7C4FF34BF012000205DF8CB
:1009B00008FB00BF4FEA410212F5001215D211D513
:1009C0006FF47873B3EB625212D94FEAC12343F04C
:1009D000004343EA505311F0004F23FA02F018BFCE
:1009E000404270474FF00000704750EA013005D197
:1009F00011F0004008BF6FF0004070474FF000005A
:100A0000704700BF82B03B4B1A6842F001021A6087
:100A10005968394A0A405A601A6822F0847222F4EE
:100A200080321A601A6822F480221A605A6822F40E
:100A3000FE025A604FF41F029A6000220092019257
:100A40001A6842F480321A601A46136803F40033BD
:100A50000193009B01330093019B1BB9009BB3F5ED
:100A6000A06FF2D1234B1B6813F4003F14BF012386
:100A700000230193019B012B36D1204B1A6842F0D1
:100A800010021A601A6822F003021A601A6842F013
:100A900002021A60A3F580535A685A605A685A6075
:100AA0005A6842F480625A605A6822F47C125A6092
:100AB0005A6842F4E8125A601A6842F080721A606A
:100AC0001A46136813F0007FFBD00A4B5A6822F0D5
:100AD00003025A605A6842F002025A601A4653688A
:100AE00003F00C03082BFAD14FF00062044B9A601C
:100AF00002B07047001002400000FFF800200240E2
:100B000000ED00E01D4B5B6803F00C03042B06D0E6
:100B1000082B08D013BB1A4A1A4B1A6021E0184A56
:100B2000184B1A601DE0154A53685268C3F383439B
:100B3000023312F4803F05D1134A02FB03F3114A3A
:100B400013600EE00D4A526812F4003F14BF0E4AC3
:100B50000B4A02FB03F30B4A136002E0084A094BFD
:100B60001A60064B5B68C3F30313084AD25CD2B227
:100B700004490B68D3400B60704700BF001002406F
:100B800000127A001000002000093D000000002043
:100B9000F0B5CB7803F00F0613F0100F1CBF8B7865
:100BA0001E430B78F3B10568002201274FF00F0EAA
:100BB00007FA02F30C881C409C420FD193000EFAF6
:100BC00003FC25EA0C0506FA03F31D43CB78282B1A
:100BD00001D1446102E0482B08BF04610132082AB8
:100BE000E6D105600B88FF2B21D94568002301273A
:100BF0004FF00F0C03F1080207FA02F40A882240B2
:100C0000A24210D14FEA830E0CFA0EF425EA040535
:100C100006FA0EF42543CC78282C08BF4261CC7824
:100C2000482C08BF02610133082BE3D14560F0BDB9
:100C30000161704741617047028A83899BB211420A
:100C400004D0194214BF01200020704700207047D3
:100C5000C94389B20182704721B1054A936918439B
:100C600090617047024A936923EA000090617047DF
:100C700000100240044B1B889BB223B1024A138828
:100C8000013B9BB213807047CC000020034B1880BF
:100C90001A4613889BB2002BFBD17047CC00002072
:100CA000F0B583B010200121FFF7D6FF10238DF897
:100CB000073003238DF806304FF4005402A921F8C1
:100CC000044D104D2846FFF763FF28462146FFF7E5
:100CD000AFFF062464272E464FF400553846FFF731
:100CE000D5FF30462946FFF7A5FF3220FFF7CEFF9C
:100CF00030462946FFF79CFF631E13F0FF04EDD139
:100D000003B0F0BD0010014008B54FF08040012154
:100D1000FFF792FF30B14FF080400121FFF798FFBD
:100D200000F040F808BD00BF70B582B00024ADF8F7
:100D30000640FFF7E7FE164B1B68164AA2FB03238B
:100D40009B09013B144A5360F021144B83F8231094
:100D5000946007231360FFF7A3FF4FF47A76104DDA
:100D60004FF40054BDF8063001339BB2ADF80630A5
:100D70003046FFF78BFF28462146FFF75BFF3046E2
:100D8000FFF784FF28462146FFF752FFEAE700BF3E
:100D900010000020D34D621010E000E000ED00E0F4
:100DA000001001400E4B1B6813F0FF0303D0013B02
:100DB000DBB20B4A13600B4B1B6813F0FF0303D02D
:100DC000013BDBB2074A1360074B1A680021196028
:100DD00022B9064A137803F0F9031370704700BF75
:100DE000B4000020B8000020BC0000201400002047
:100DF000002103E00A4B5B584350043109480A4B79
:100E000042189A42F6D3094A02E0002342F8043B12
:100E1000074B9A42F9D3FFF7F5FDFFF785FF7047BF
:100E2000E429000800000020B4000020B4000020E5
:100E3000D4000020FEE72DE9F0471E4688B0149F3D
:100E4000002BB8BF06F10043129927F02007B6BF68
:100E50001E4600232D23462F1446109DDDF84CA07E
:100E60000B7003D0452F03D1013501E0032300E0CF
:100E700002238DE8280406AB039307AB04932246B4
:100E8000334600F0DDFB472F804602D1119BDB0784
:100E900026D5462F08EB050911D198F80030302BE4
:100EA0000AD12046314600220023FFF751FD18B930
:100EB000C5F10105CAF80050DAF80030994420461F
:100EC000314600220023FFF743FD08B1CDF81C9006
:100ED000079B4B4504D25A1C079230221A70F7E741
:100EE0004046079B159AC8EB0303136008B0BDE8A2
:100EF000F087034673B50029B8BF494203F8022BB7
:100F0000B4BF2D222B22092942701ADD0DF10704EE
:100F100026460A2291FBF2F502FB1511092D01F17B
:100F2000300104F8011D2946F3DC3031651E04F858
:100F3000011CB5421A460AD215F8012B03F8012B01
:100F4000F7E71A463024214402F8024B5970101A70
:100F500002B070BD2DE9F04F91B08B4615461E468C
:100F60001A9F044601F026F9D0F800A0504600F080
:100F7000D5FA00230E933B680990073323F007034B
:100F800003F108029BF818803A60D3E90023CBE90B
:100F90001223DBE9120100F099FA0128DBE91201C2
:100FA00019D100220023FFF7DDFC10B12D238BF8AF
:100FB0004330A04BA04FB8F1470F88BF1F46032313
:100FC000CBF81030DBF8003023F00403CBF800300E
:100FD0004FF00009A1E000F079FADBF8003048B9E1
:100FE000964A974FB8F1470F88BF17460322CBF8B0
:100FF0001020E9E7DBF80420DBE91201571CCDE9FA
:101000000A0101D1062209E0B8F1670F02D0B8F158
:10101000470F05D1002A40F0C7810122CBF80420F8
:10102000DBF8042043F480638DE80C00CBF800303B
:101030000DF1330302930DAB03930EAB0593002325
:101040000693CDF81080DDE90A232046FFF7F3FE72
:1010500008F0DF03472B07460AD10D9BD81C03DBA2
:10106000DBF80420934237DDA8F102085FFA88F824
:10107000B8F1650F0D9915D8013942460BF15000B2
:101080000D91FFF736FF0E9A81468318012ACBF89F
:10109000103003DCDBF80020D10738D50133CBF862
:1010A000103034E0B8F1660F18D10029DBF80430B5
:1010B00009DDCBF810101BB9DBF80020D20721D5D1
:1010C00001330B441CE01BB9DBF80020D00701D52D
:1010D000023315E0012313E04FF067080D9B0E9AD1
:1010E000934207DBDBF80020CBF81030D10709D59D
:1010F000013305E0002BD4BFC3F1020301231344E5
:10110000CBF810300D9B4FF00009CBF858309DF80C
:10111000333013B12D238BF84330009620465946C7
:101120000FAA2B4600F05CF9013002D14FF0FF30DE
:1011300052E1DBF800305A0505D4204629463A46EC
:10114000DBF8103008E1B8F1650F40F2D080DBE940
:10115000120100220023FFF7FBFB50B32046294673
:10116000384A0123B0470130E0D00E9B0D9A9A42D5
:1011700009DBDBF80030D80705D4DBF800309F0727
:1011800000F1108107E1204629465246099BB047ED
:101190000130CBD000270E9B013B9F42EDDA204669
:1011A00029460BF11A020123B0470130BED00137A6
:1011B000F1E70D9B002B29DC20462946214A01231B
:1011C000B0470130B2D00D9B2BB90E9B1BB9DBF899
:1011D0000030D907D1D5204629465246099BB04751
:1011E0000130A3D04FF000080D9B20465B4298458C
:1011F000294608DA0BF11A020123B047013095D0D5
:1012000008F10108F0E73A460E9BA5E0DBF858200C
:101210000E9B9A42A8BF1A46002A914602DC4FF064
:1012200000081CE0204629463A464B46B0470130AC
:10123000F5D17BE7BC280008B8280008C4280008BE
:10124000C0280008C8280008204629460BF11A02C9
:101250000123B04701303FF469AF08F10108DBF822
:101260005830B9F1000FB4BF1A46C9EB03029045DC
:10127000EADB07EB03080D9A0E9B9A4210DBDBF8C2
:101280000030DA070CD40E9A1744C8EB07030D9F01
:10129000D21B9342A8BF1346002B1F4608DC0EE06A
:1012A000204629465246099BB0470130EBD13DE725
:1012B000204629464246B04701303FF437AF4FF051
:1012C00000080AE0204629460BF11A020123B04724
:1012D00001303FF42BAF08F101080D9A0E9B002F4F
:1012E000A3EB0203A8BFDB1B9845EBDB45E70E9A97
:1012F000012A01DCDB0736D5204629463A46012380
:10130000B04701303FF412AF204629465246099BB0
:10131000B04701303FF40AAFDBE91201002200239D
:10132000FFF716FBE8B90E9B204629467A1C013BC5
:101330001DE0204629460BF11A020123B047013077
:101340003FF4F4AE01370E9B013B9F42F1DB204698
:1013500029464B460BF15002B04701307FF40DAFE8
:10136000E4E60027EFE7204629463A460123B04746
:101370000130ECD1DAE6204629460BF119020123AF
:10138000B04701303FF4D2AE0137DBF80C300F9A92
:101390009B1A9F42EFDBDBF80C000F9B9842B8BF13
:1013A000184619E00027F0E743F480638DE80C004D
:1013B000CBF800300DF1330302930DAB03930EAB6A
:1013C000059300230693CDF810802046DDE90A231B
:1013D000FFF731FD074640E611B0BDE8F08F00BFD2
:1013E0002DE9F84391461F468A680B6906469342E9
:1013F000B8BF1346C9F8003091F843200C46DDF819
:10140000208012B10133C9F800302368990642BF29
:10141000D9F800300233C9F80030256815F0060508
:101420001CD094F843302268003318BF0123920681
:101430001FD5E118302081F843005A1C94F845105C
:101440002244023382F8431013E03046394604F157
:1014500019020123C047013007D00135E368D9F8EC
:1014600000209B1A9D42F0DBDBE74FF0FF30BDE828
:10147000F8833046394604F14302C0470130F4D0C6
:101480002268D9F80050E36802F00602042A08BF77
:101490005D1B2269A3680CBF25EAE5750025934210
:1014A000C4BF9B1AED184FF00009A9450ADA30466F
:1014B000394604F11A020123C0470130D5D009F1A1
:1014C0000109F2E70020BDE8F883000031F0004395
:1014D00010B51BD00F4AA1F58014944210D901F128
:1014E000FF410C4A01F5E001914209D9B3F5801F93
:1014F00008D3094A934207D1B0FA80F0400910BDE1
:10150000042010BD032010BD002010BD0028E6D12E
:10151000022010BDFFFFDF7F0000F07F034613F8BD
:10152000012B002AFBD1181A013870472DE9F74F1B
:1015300003690C698046A3427EDB013C01F114077C
:101540004FEA840E00F1140606EB0E0357F8245000
:10155000019356F824300135B3FBF5F507EB0E097E
:10156000BDB34FF0000A3846B446D34650F8043BAA
:101570009AB21B0C02FB05A26B4303EB124392B21F
:10158000C2EB0B0BBCF800204FEA134A5A441FFA77
:1015900083FBDCF800304845CBEB134303EB2243DD
:1015A00092B242EA03424FEA234B4CF8042BDDD9B6
:1015B00056F80E306BB9019B043BB3421A4602D871
:1015C000C8F8104005E01268043B002AF8D1013C3D
:1015D000F3E7404601F017F800282BDB30460135D1
:1015E0004FF0000E57F8042B036891B2C1EB0E0EBA
:1015F000120C99B27144C2EB134303EB214389B23D
:101600004FEA234E4F4541EA034340F8043BE9D9F2
:1016100056F8242006EB840362B9043BB3421A4611
:1016200002D8C8F8104005E01268043B002AF8D13F
:10163000013CF3E7284600E0002003B0BDE8F08F4E
:101640002DE9F04F456A95B08246219CCDE90223F1
:1016500045B9102000F0B2FDCAF82400456085604D
:101660000560C560DAF82430196859B15A68012359
:1016700093404A608B60504600F0E8FDDAF8243071
:1016800000221A60039BA24A002BBDBF01232360E6
:10169000039B0023BCBF23F000430393039FA8BF19
:1016A000236027F000431B0D1B0593421DD142F21E
:1016B0000F73209A1360029B43B9964A964BC7F367
:1016C0001300002814BF1846104600E09248229BE1
:1016D000002B00F06985C37813B100F1080300E026
:1016E000C31C229A136000F05FBDDDE902450022B1
:1016F000204629460023FFF72BF9804658B1209A4F
:1017000001231360229B002B00F03C858348186066
:10171000013800F049BD13AB009312AB0193504662
:1017200022462B4600F0EAFFC7F30A5607905EB147
:10173000C5F3130343F07F51204641F44011A6F254
:10174000FF36CDF844801DE0139B129E1E446FF4BB
:1017500082639E42A1BF029A06F2124322FA03F06C
:101760006F4BB7BF6F4B9B1B029A9B1BAABF9F403F
:1017700002FA03F03843FEF70DFE0123A1F1F871E0
:10178000013E11930022684BFEF7C6FC5AA3D3E931
:101790000023FEF775FE5AA3D3E90023FEF7BEFC33
:1017A000044630460D46FEF705FE57A3D3E9002355
:1017B000FEF766FE02460B4620462946FEF7AEFCC3
:1017C00004460D46FFF7F6F82946834600222046D8
:1017D0000023FFF7C7F858B15846FEF7EBFD024665
:1017E0000B4620462946FFF7B3F808B90BF1FF3B3B
:1017F000BBF1160F0DD84D4B03EBCB03D3E9000122
:10180000DDE90223FFF7CCF830B10BF1FF3B0023F9
:1018100000E00123109300E01090129B9E1B731EAA
:101820000A9345BF5B420993002300234CBF0A93F0
:101830000993BBF1000F07DB0A9BCDF834B05B4482
:101840000A9300230B9308E0099BCBEB0303099356
:10185000CBF100030B9300230D931E9B092B29D87A
:10186000052BC4BF043B1E931E9BC8BF0025A3F1DC
:101870000203D8BF0125032B21D8DFE803F0020EB5
:101880000410002300E001230C931F9B002B20DC9D
:101890000123069305931A4619E0002300E0012373
:1018A0000C931F9B5B4406930133012B0593B8BF38
:1018B000012311E0012500231E930C9501E0012373
:1018C0000C934FF0FF3306930593002212231F92CF
:1018D00002E01F9B06930593DAF824400022626021
:1018E000042101F114029A4222D8626849000132AF
:1018F0006260F6E7AFF3008061436F63A787D23F72
:10190000B3C8608B288AC63FFB799F501344D33FEE
:101910000000F07FCA280008D3280008C928000862
:101920000EFCFFFFEEFBFFFF0000F83FE828000879
:101930005046616800F055FCDAF8243020601B68DE
:101940000893059B0E2B00F24781002D00F0448187
:10195000DDE90223BBF1000FCDE90E2331DDB14AF1
:101960000BF00F034FEA2B1602EBC303F006D3E98B
:1019700000450CD5DDE90E01AB4B06F00F06D3E9AF
:101980000823FEF7A7FE0327CDE9020100E00227A6
:10199000DFF8948276B1F10708D5D8E90023204614
:1019A0002946FEF76DFD04460D460137761008F115
:1019B0000808EFE7DDE9020122462B46FEF78AFE22
:1019C0001BE0CBF10004DCB1DDE90E01954B04F026
:1019D0000F0203EBC203D3E90023FEF751FD924D42
:1019E000241102274CB1E20704D5D5E900230137C1
:1019F000FEF746FD64100835F4E7CDE9020100E08A
:101A00000227109BDBB1DDE9024500222046294672
:101A1000864BFEF7A7FF90B1059B83B1069B002B79
:101A200040F3D680294620460022814BFEF728FD50
:101A30000BF1FF36CDE902010137069D01E05E465C
:101A4000059D3846DDE90289FEF7B4FC42464B4667
:101A5000FEF716FD774B0022FEF760FBCDE9020191
:101A6000039BA3F150740394CDB94046494600222C
:101A7000714BFEF751FB029A234680468946FEF7DA
:101A80008FFF002840F0408240464946029A04F108
:101A90000043FEF767FF002840F0308298E0614B7A
:101AA0000C996A1E03EBC203002947D0D3E9002337
:101AB00000206249FEF70EFEDDE90223FEF72CFB53
:101AC000CDE90201089C49464046FEF773FF0746F0
:101AD000FEF770FC02460B4640464946FEF71CFBEB
:101AE000DDE90223303704F8017B80468946FEF7A2
:101AF00039FF002840F0378342464B4600204B49CF
:101B0000FEF70AFBDDE90223FEF72CFF002840F078
:101B1000D080089BE31AAB425ADADDE902010022C9
:101B2000434BFEF7ADFC0022CDE90201404B40469D
:101B30004946FEF7A5FC80468946C4E7D3E9000183
:101B4000DDE90223FEF79CFC089BCDE902015C194C
:101B50001D4649464046FEF72DFF0746FEF72AFC84
:101B600002460B4640464946FEF7D6FA303705F89E
:101B7000017BA5428046894623D100222F4BDDE917
:101B80000201FEF7CBFA02460B4640464946FEF7F5
:101B900007FF002840F08D80DDE90223002027495F
:101BA000FEF7BAFA02460B4640464946FEF7DAFE11
:101BB00070B114F8013C621E302B40F0D482144600
:101BC000F7E700221A4BFEF75BFC80468946C0E728
:101BD000DDE90E23CDE90223139B002BC0F28A809E
:101BE000BBF10E0F00F386800E4B03EBCB03D3E962
:101BF00000671F9B002B23DA059B002B20DC40F0A5
:101C00007C81304600220C4B3946FEF739FCDDE979
:101C10000223FEF7BBFE059D2E46002840F06F8193
:101C200074E100BFE8280008B02900080000F03F78
:101C30000000244000001C40000014400000E03F71
:101C4000089CDDE9028932463B4640464946FEF79C
:101C500041FDFEF7AFFE0546FEF7ACFB32463B46C4
:101C6000FEF70EFC0B46024649464046FEF754FA84
:101C700005F1300E089B04F801EBC3EB040E059B45
:101C80009E452AD102460B46FEF748FA32463B46AD
:101C900080468946FEF784FE70B940464946324682
:101CA0003B46FEF755FE002800F05E82EB0703D4AA
:101CB0005AE2B34600E01C4614F8012C631E392A90
:101CC00007D1089A9342F6D13023137013460BF1D3
:101CD000010B1A7801321A7046E20022A34BFEF77C
:101CE000CFFB0022002380468946FEF731FE002804
:101CF000A9D039E20C9A002A32D01E9A012A0ADCB5
:101D0000119A12B103F2334302E0129BC3F136037E
:101D10000B9D099C18E0059B5D1E0B9BAB42B7BF5A
:101D20000B9B5D1BEA1A0D9BBEBF0B959B180D9379
:101D3000059BB8BF0025002BB9BF099B059A099CDC
:101D4000059BBCBF9C1A0023099A50461A4409926D
:101D50000A9A01211A440A9200F01AFB064602E090
:101D60000B9D099C0C9E64B10A9B002B09DDA342CC
:101D7000A8BF2346099AE41AD21A09920A9AD31ADA
:101D80000A930B9B002B20DD0C9BC3B1002D10DDB3
:101D900031462A46504600F095FB0646079A3146E2
:101DA000504600F0FEFA07460799504600F04EFAFA
:101DB00007970B9B5A1B08D05046079902E05046E4
:101DC00007990B9A00F07EFB07905046012100F026
:101DD000DFFA0D9B0546002B0ADD29461A465046C0
:101DE00000F070FB1E9B0546012B04DD00271BE065
:101DF0001E9B012B13DC029B8BB9039BC3F31303C4
:101E00007BB9039B23F000473F0D3F0557B1099B6A
:101E10000127013309930A9B01330A9302E000274B
:101E200000E0029F0D9B43B12B6905EB830318690A
:101E300000F061FAC0F1200000E001200A9B184484
:101E400010F01F0008D0C0F12003042B02DDC0F108
:101E50001C0002E008D018461C30099B04440344CF
:101E600009930A9B03440A93099B002B05DD504606
:101E700007991A4600F074FB07900A9B002B05DDBA
:101E8000294650461A4600F06BFB0546109BEBB105
:101E90000798294600F0B7FB002817DA00235046C0
:101EA00007990A2200F0E9F90C9B0BF1FF3B079020
:101EB000002B00F06B813146002350460A2200F0CF
:101EC000DCF9069B0646002B33DC68E1059B002B02
:101ED00026DC1E9B022B23DD059B0693069B73B914
:101EE00029460522504600F0C8F9054607982946BC
:101EF00000F089FB002809DC01E000252E461F9B2D
:101F0000089C6FEA030B08E0B3462E46089B089A2C
:101F10005C1C312313700BF1010BB14600260FE15D
:101F20000C9B23B9059B0693089F079CC9E0059B62
:101F30000693002C05DD31465046224600F010FB8A
:101F40000646AFB17168504600F04BF9044632695D
:101F500006F10C01023292000C3000F037F95046C5
:101F60002146012200F0FCFA814602E000002440F4
:101F7000B146089F079C29462046FFF7D7FA31460D
:101F8000099000F13008204600F03DFB4A460590DC
:101F90002946504600F053FBC26803463AB9194639
:101FA0002046079300F02FFB079B024600E001222A
:101FB00050461946079200F049F9079A92B91E9BBC
:101FC00083B9029B03F0010363B9B8F1390F3B46B3
:101FD00007943ED0059B7C1C002BC4BF099B03F1DA
:101FE00031083DE0059B002B04DA002AC446079423
:101FF00008DC21E024D11E9B13BB029B03F00103EC
:10200000F3B9F2E72146012250460597CDF8088042
:1020100000F0A6FA2946079000F0F5FA0028DDF84E
:1020200008C0059B03DC07D118F0010F04D0B8F1FC
:10203000390F0ED008F1010C7C1C87F800C07FE03E
:10204000002A07F101020EDDB8F1390F3B46079473
:1020500003D1392201371A7057E0144608F10108FC
:1020600087F800806CE0089B1746D31A02F8018CB1
:10207000069A93423AD021460A220023504600F0A5
:10208000FCF84E450446314650464FF00A024FF0E8
:10209000000304D100F0F1F8064681466BE700F03A
:1020A000ECF8494606460A225046002300F0E5F8BF
:1020B000814660E7214650460A22002300F0DDF801
:1020C000044620462946FFF731FA089B00F1300804
:1020D00007F8018B069AFB1A9342EBDB089BB1468B
:1020E000012AACBF9B1801331F460026214601225E
:1020F000504600F035FA2946079000F084FA00288F
:1021000003DC15D118F0010F12D03C4614F8013C45
:10211000621E392B09D1089B9A4204D10BF1010BA5
:102120003123089A02E01446F0E70133137007E008
:102130003C4614F8013C621E302B01D11446F8E7EE
:102140005046294600F082F8B9F1000F0CD02EB1AC
:102150004E4503D05046314600F078F85046494687
:1021600000F074F800E0B3465046079900F06EF8AE
:102170000023209A23700BF101031360229B1BB1F3
:102180001C6001E00A480FE008980DE0069B002B58
:102190003FF7CAAE1E9B022B3FF7A0AEC4E61E9BC4
:1021A000022B3FF79BAEC4E615B0BDE8F08F00BF31
:1021B000C82800080048704718000020024B01465C
:1021C000186800F0FBBA00BFB000002010B5431E35
:1021D0000A44914204D011F8014B03F8014FF8E78B
:1021E00010BD70B5456A04460E463DB91020FFF794
:1021F000E5FF6062456085600560C560656AEB6803
:1022000043B1636ADB6853F8260078B1026843F88B
:10221000262017E020460421212200F0C1FA636A3B
:10222000E860DB68002BECD1002070BD012101FAD1
:1022300006F56A1D2046920000F0B2FA0028F3D09D
:102240004660856000230361C36070BD70B5446A59
:1022500006460D463CB91020FFF7B0FF706244609F
:1022600084600460C4603DB1736A6A68DB6853F8D7
:102270002210296043F8225070BD2DE9F041064636
:102280000C460F69984601F1140E0023DEF8000099
:10229000013385B2010C02FB0585514301EB154169
:1022A000ADB24FEA1148BB4205EB01414EF8041BA9
:1022B000ECDBB8F1000F1BD0A3689F4212DB616812
:1022C00030460131FFF78DFF0546226904F10C010C
:1022D000023292000C30FFF779FF21463046FFF7BB
:1022E000B5FF2C4604EB87030137C3F81480276140
:1022F0002046BDE8F081030C1B0413B90004102331
:1023000000E0002310F07F4F04BF0002083310F0FC
:10231000704F04BF0001043310F0404F04BF800031
:102320000233002803DB420003D5581C70471846CF
:10233000704720207047036813F007020BD0D907BD
:1023400022D49A074BBF5B089B08036003604CBF15
:1023500001200220704799B209B91B0C102213F01A
:10236000FF0F04BF1B0A0832190704BF1B09043200
:10237000990704BF9B080232D90702D45B0805D035
:1023800001320360104670470020704720207047DC
:1023900010B50C460121FFF724FF012244610261C0
:1023A00010BD2DE9F74F14460A69236988469A4201
:1023B000BEBF0B46A0461C46D8F81070D4F810904B
:1023C000D8F80830D8F8041007EB09069E42C8BFB9
:1023D0000131FFF706FF00F114052B4605EB860CD3
:1023E000634503D2002243F8042BF9E704F11402F9
:1023F00008F1140102EB890301EB87070093009BAE
:1024000001929A4257D2B2F800B0BBF1000F23D02C
:102410008946AE464FF0000859F8044BBEF800A0BC
:10242000A3B20BFB03A34FEA144ADEF80040434477
:102430004FEA14480BFB0A84F24604EB13449BB2A8
:1024400043EA04434F454FEA14484AF8043B01D994
:10245000D646E1E7CEF80480019B0432B3F802A02F
:10246000BAF1000F21D02C4689462B684FF00008A6
:10247000B9F800E0B4F802B09BB20AFB0EBEA34666
:10248000F04443EA08434BF8043B59F8043BB4F8E2
:1024900004E01B0C0AFB03E3B94503EB18434FEAC6
:1024A000134801D25C46E3E763600435A7E75CF8B4
:1024B000043D13B9013E002EF9DC066103B0BDE80E
:1024C000F08F000012F003032DE9F04106460F469D
:1024D000154607D0214A013B52F823200023FFF77D
:1024E000CCFE0746AD1035D0746A3CB91020FFF71A
:1024F00065FE7062446084600460C460D6F8248025
:10250000D8F808407CB9304640F27121FFF740FF0F
:102510000023C8F808000446036004E06D1019D0D9
:10252000206870B10446EB07F8D53946224630469C
:10253000FFF737FF804639463046FFF787FE4746AC
:10254000ECE7304621462246FFF72BFF00232060B0
:102550000360E7E73846BDE8F08100BFD8290008EE
:102560002DE9F0470C460746164623694FEA621AE2
:102570000AEB03094968A36809F101059D4202DDE0
:1025800001315B00FAE73846FFF72BFE804600F189
:1025900014010023534504DA002241F823200133BB
:1025A000F8E72AEAEA73206901EB830316F01F02B9
:1025B00004F1140101EB800E14D0C2F1200C0020B4
:1025C0000E689A469640304343F8040B51F8040BCA
:1025D000714520FA0CF0F3D3CAF8040048B109F1B0
:1025E000020506E0043B51F8042B714543F8042F23
:1025F000F9D3013D3846C8F810502146FFF726FEB2
:102600004046BDE8F08703690A6910B59B1A11D1ED
:1026100092001430143183180A4453F8044D52F8D0
:10262000041D8C4202D007D3012010BD8342F4D890
:10263000002010BD184610BD4FF0FF3010BD2DE931
:10264000F84307460C46084611461546FFF7DBFFE0
:10265000061E08D138463146FFF7C3FD012303614A
:102660004661BDE8F883BCBF23462C463846616806
:10267000BABF1D4601260026FFF7B3FD2B69C660D1
:10268000266905F1140904F1140101EB860709EB31
:10269000830800F114054FF0000C51F8042B59F891
:1026A000044B93B29C44A3B2240CC3EB0C03C4EBC5
:1026B000124202EB23429BB24FEA224CC84543EA46
:1026C00002428E4645F8042BE7D8BE450ED25EF88E
:1026D000043B9AB262441B0C03EB224392B242EADF
:1026E00003424FEA234C45F8042BEEE755F8043D2E
:1026F0000BB9013EFAE70661BDE8F8832DE9F34125
:102700001C4601211546089F099EFFF76AFDC4F388
:102710001302C4F30A5480460CB142F480120192B1
:10272000EDB102A840F8085DFFF705FE009B50B12F
:10273000019AC0F1200102FA01F10B43C240C8F82E
:102740001430019201E0C8F81430019B002B14BF33
:1027500002250125C8F81830C8F8105009E001A872
:10276000FFF7E9FD019B0125C8F81430C8F81050A7
:10277000203034B1A4F2334404443C60C0F135004D
:1027800009E0A0F2324008EB850338601869FFF7D2
:10279000B2FDC0EB45103060404602B0BDE8F081AC
:1027A00038B502FB01F4214600F008F8054618B1DF
:1027B0000021224600F068F8284638BD70B5CC1CD0
:1027C00024F0030408340C2C38BF0C24002C0646DB
:1027D00003DA0C233360002070BD8C42F9D3204A09
:1027E000136810461946A1B10A68121B0ED40B2AB1
:1027F00003D90A608B188C501FE08B420BBF5A68BC
:102800004A6802605A6018BF0B4616E00B464968DA
:10281000E9E7144D2B681BB9304600F025F8286015
:102820003046214600F020F8421C0346D1D0C51C9A
:1028300025F0030585420AD11C6003F10B001A1D27
:1028400020F00700821A0AD05142995070BD3046DC
:10285000E91A00F009F80130BBD02B46ECE770BD57
:10286000C4000020C000002038B5064C00230546F7
:102870000846236000F010F8431C02D1236803B11E
:102880002B6038BDD000002003460244934202D0A2
:1028900003F8011BFAE77047044A05491368002B47
:1028A00008BF0B461844106018467047C800002047
:0428B000D400002030
:1028B800494E4600696E66004E414E006E616E00DC
:1028C8003000496E66696E697479004E614E004346
:1028D80000504F534958002E00000000000000002F
:1028E800000000000000F03F00000000000024404D
:1028F80000000000000059400000000000408F4028
:10290800000000000088C34000000000006AF84092
:102918000000000080842E4100000000D0126341B6
:102928000000000084D797410000000065CDCD412C
:10293800000000205FA00242000000E8764837420D
:10294800000000A2941A6D42000040E59C30A242AB
:102958000000901EC4BCD64200003426F56B0C4320
:102968000080E03779C3414300A0D88557347643C7
:1029780000C84E676DC1AB43003D9160E458E14328
:10298800408CB5781DAF154450EFE2D6E41A4B449D
:1029980092D54D06CFF08044F64AE1C7022DB544E2
:1029A800B49DD9794378EA440080E03779C341433C
:1029B800176E05B5B5B89346F5F93FE9034F384D9D
:1029C800321D30F94877825A3CBF737FDD4F157549
:0C29D80005000000190000007D00000058
:1029E40000000000000000000102030406070809BB
:1029F40000A24A0401000000DF280008E0280008C3
:102A0400E0280008E0280008E0280008E028000882
:102A1400E0280008E0280008E0280008E028000872
:102A2400FFFFFFFFFFFFFFFFFFFFFFFFFFFF0000B0
:102A34000000000000000000000000000000000092
:102A44000000000000000000000000000000000082
:102A5400D72800080000000000000000000000006B
:102A64000000000000000000000000000000000062
:102A74000000000000000000000000000000000052
:102A84000000000000000000000000000000000042
:042A940050000020CE
:0400000508000DF1F1
:00000001FF
